{
  "contractName": "Rankify",
  "abi": [
    {
      "anonymous": false,
      "inputs": [
        {
          "indexed": false,
          "internalType": "uint256",
          "name": "qrCode",
          "type": "uint256"
        },
        {
          "indexed": false,
          "internalType": "uint256",
          "name": "transactionId",
          "type": "uint256"
        }
      ],
      "name": "QRCodeGenerated",
      "type": "event"
    },
    {
      "anonymous": false,
      "inputs": [
        {
          "indexed": false,
          "internalType": "uint256",
          "name": "id",
          "type": "uint256"
        },
        {
          "indexed": false,
          "internalType": "string",
          "name": "title",
          "type": "string"
        },
        {
          "indexed": false,
          "internalType": "string",
          "name": "description",
          "type": "string"
        },
        {
          "indexed": false,
          "internalType": "uint256",
          "name": "rating",
          "type": "uint256"
        },
        {
          "indexed": false,
          "internalType": "uint256",
          "name": "timestamp",
          "type": "uint256"
        },
        {
          "indexed": false,
          "internalType": "uint256",
          "name": "qrCodeId",
          "type": "uint256"
        }
      ],
      "name": "ReviewSubmitted",
      "type": "event"
    },
    {
      "inputs": [],
      "name": "qrCodeCounter",
      "outputs": [
        {
          "internalType": "uint256",
          "name": "",
          "type": "uint256"
        }
      ],
      "stateMutability": "view",
      "type": "function",
      "constant": true
    },
    {
      "inputs": [
        {
          "internalType": "uint256",
          "name": "",
          "type": "uint256"
        }
      ],
      "name": "qrCodes",
      "outputs": [
        {
          "internalType": "uint256",
          "name": "transactionId",
          "type": "uint256"
        },
        {
          "internalType": "bool",
          "name": "used",
          "type": "bool"
        }
      ],
      "stateMutability": "view",
      "type": "function",
      "constant": true
    },
    {
      "inputs": [],
      "name": "reviewCounter",
      "outputs": [
        {
          "internalType": "uint256",
          "name": "",
          "type": "uint256"
        }
      ],
      "stateMutability": "view",
      "type": "function",
      "constant": true
    },
    {
      "inputs": [
        {
          "internalType": "uint256",
          "name": "",
          "type": "uint256"
        }
      ],
      "name": "reviews",
      "outputs": [
        {
          "internalType": "uint256",
          "name": "id",
          "type": "uint256"
        },
        {
          "internalType": "string",
          "name": "title",
          "type": "string"
        },
        {
          "internalType": "string",
          "name": "description",
          "type": "string"
        },
        {
          "internalType": "uint256",
          "name": "rating",
          "type": "uint256"
        },
        {
          "internalType": "uint256",
          "name": "timestamp",
          "type": "uint256"
        },
        {
          "internalType": "uint256",
          "name": "qrCodeId",
          "type": "uint256"
        }
      ],
      "stateMutability": "view",
      "type": "function",
      "constant": true
    },
    {
      "inputs": [
        {
          "internalType": "uint256",
          "name": "_transactionId",
          "type": "uint256"
        }
      ],
      "name": "generateQRCode",
      "outputs": [
        {
          "internalType": "uint256",
          "name": "",
          "type": "uint256"
        }
      ],
      "stateMutability": "nonpayable",
      "type": "function"
    },
    {
      "inputs": [
        {
          "internalType": "string",
          "name": "_title",
          "type": "string"
        },
        {
          "internalType": "string",
          "name": "_description",
          "type": "string"
        },
        {
          "internalType": "uint256",
          "name": "_rating",
          "type": "uint256"
        },
        {
          "internalType": "uint256",
          "name": "_qrCodeId",
          "type": "uint256"
        }
      ],
      "name": "submitReview",
      "outputs": [],
      "stateMutability": "nonpayable",
      "type": "function"
    },
    {
      "inputs": [
        {
          "internalType": "uint256",
          "name": "_id",
          "type": "uint256"
        }
      ],
      "name": "getReviews",
      "outputs": [
        {
          "internalType": "string",
          "name": "",
          "type": "string"
        },
        {
          "internalType": "string",
          "name": "",
          "type": "string"
        },
        {
          "internalType": "uint256",
          "name": "",
          "type": "uint256"
        },
        {
          "internalType": "uint256",
          "name": "",
          "type": "uint256"
        },
        {
          "internalType": "uint256",
          "name": "",
          "type": "uint256"
        }
      ],
      "stateMutability": "view",
      "type": "function",
      "constant": true
    },
    {
      "inputs": [
        {
          "internalType": "uint256",
          "name": "_id",
          "type": "uint256"
        }
      ],
      "name": "getQRCodeDetails",
      "outputs": [
        {
          "internalType": "uint256",
          "name": "",
          "type": "uint256"
        },
        {
          "internalType": "bool",
          "name": "",
          "type": "bool"
        }
      ],
      "stateMutability": "view",
      "type": "function",
      "constant": true
    }
  ],
  "bytecode": "0x608060405234801561001057600080fd5b50610e6c806100206000396000f3fe608060405234801561001057600080fd5b50600436106100885760003560e01c80636ca800261161005b5780636ca80026146101285780639d4a225514610159578063e168b3a81461018d578063e83ddcea146101ab57610088565b806305d6fc121461008d5780631a9be139146100ab5780632c342572146100db57806333f61495146100f7575b600080fd5b6100956101e0565b6040516100a29190610b55565b60405180910390f35b6100c560048036038101906100c091906109b4565b6101e6565b6040516100d29190610b55565b60405180910390f35b6100f560048036038101906100f09190610921565b6102a0565b005b610111600480360381019061010c91906109b4565b61047f565b60405161011f929190610b70565b60405180910390f35b610142600480360381019061013d91906109b4565b6104dd565b604051610150929190610b70565b60405180910390f35b610173600480360381019061016e91906109b4565b61050e565b604051610184959493929190610ab4565b60405180910390f35b6101956106af565b6040516101a29190610b55565b60405180910390f35b6101c560048036038101906101c091906109b4565b6106b5565b6040516101d796959493929190610b99565b60405180910390f35b60035481565b6000806003549050604051806040016040528084815260200160001515815250600160008381526020019081526020016000206000820151816000015560208201518160010160006101000a81548160ff0219169083151502179055509050506003600081548092919061025990610d38565b91905055507f7070f140c3663f59d367c2708b5599cbb62c0c8a888b391351f927fa352cef86818460405161028f929190610c08565b60405180910390a180915050919050565b6001600082815260200190815260200160002060010160009054906101000a900460ff1615610304576040517f08c379a00000000000000000000000000000000000000000000000000000000081526004016102fb90610b15565b60405180910390fd5b6003548110610348576040517f08c379a000000000000000000000000000000000000000000000000000000000815260040161033f90610b35565b60405180910390fd5b6040518060c0016040528060025481526020018581526020018481526020018381526020014281526020018281525060008060025481526020019081526020016000206000820151816000015560208201518160010190805190602001906103b1929190610801565b5060408201518160020190805190602001906103ce929190610801565b50606082015181600301556080820151816004015560a08201518160050155905050600180600083815260200190815260200160002060010160006101000a81548160ff0219169083151502179055507fc94f92f15b89ef7d50ce288e5e51eb40ebf9327abd02e47cc347afbd48497750600254858585428660405161045996959493929190610b99565b60405180910390a16002600081548092919061047490610d38565b919050555050505050565b600080600060016000858152602001908152602001600020604051806040016040529081600082015481526020016001820160009054906101000a900460ff1615151515815250509050806000015181602001519250925050915091565b60016020528060005260406000206000915090508060000154908060010160009054906101000a900460ff16905082565b6060806000806000806000808881526020019081526020016000206040518060c00160405290816000820154815260200160018201805461054e90610d06565b80601f016020809104026020016040519081016040528092919081815260200182805461057a90610d06565b80156105c75780601f1061059c576101008083540402835291602001916105c7565b820191906000526020600020905b8154815290600101906020018083116105aa57829003601f168201915b505050505081526020016002820180546105e090610d06565b80601f016020809104026020016040519081016040528092919081815260200182805461060c90610d06565b80156106595780601f1061062e57610100808354040283529160200191610659565b820191906000526020600020905b81548152906001019060200180831161063c57829003601f168201915b505050505081526020016003820154815260200160048201548152602001600582015481525050905080602001518160400151826060015183608001518460a00151955095509550955095505091939590929450565b60025481565b60006020528060005260406000206000915090508060000154908060010180546106de90610d06565b80601f016020809104026020016040519081016040528092919081815260200182805461070a90610d06565b80156107575780601f1061072c57610100808354040283529160200191610757565b820191906000526020600020905b81548152906001019060200180831161073a57829003601f168201915b50505050509080600201805461076c90610d06565b80601f016020809104026020016040519081016040528092919081815260200182805461079890610d06565b80156107e55780601f106107ba576101008083540402835291602001916107e5565b820191906000526020600020905b8154815290600101906020018083116107c857829003601f168201915b5050505050908060030154908060040154908060050154905086565b82805461080d90610d06565b90600052602060002090601f01602090048101928261082f5760008555610876565b82601f1061084857805160ff1916838001178555610876565b82800160010185558215610876579182015b8281111561087557825182559160200191906001019061085a565b5b5090506108839190610887565b5090565b5b808211156108a0576000816000905550600101610888565b5090565b60006108b76108b284610c62565b610c31565b9050828152602081018484840111156108cf57600080fd5b6108da848285610cc4565b509392505050565b600082601f8301126108f357600080fd5b81356109038482602086016108a4565b91505092915050565b60008135905061091b81610e1f565b92915050565b6000806000806080858703121561093757600080fd5b600085013567ffffffffffffffff81111561095157600080fd5b61095d878288016108e2565b945050602085013567ffffffffffffffff81111561097a57600080fd5b610986878288016108e2565b93505060406109978782880161090c565b92505060606109a88782880161090c565b91505092959194509250565b6000602082840312156109c657600080fd5b60006109d48482850161090c565b91505092915050565b6109e681610cae565b82525050565b60006109f782610c92565b610a018185610c9d565b9350610a11818560208601610cd3565b610a1a81610e0e565b840191505092915050565b6000610a32601d83610c9d565b91507f515220636f64652068617320616c7265616479206265656e20757365640000006000830152602082019050919050565b6000610a72600f83610c9d565b91507f496e76616c696420515220636f646500000000000000000000000000000000006000830152602082019050919050565b610aae81610cba565b82525050565b600060a0820190508181036000830152610ace81886109ec565b90508181036020830152610ae281876109ec565b9050610af16040830186610aa5565b610afe6060830185610aa5565b610b0b6080830184610aa5565b9695505050505050565b60006020820190508181036000830152610b2e81610a25565b9050919050565b60006020820190508181036000830152610b4e81610a65565b9050919050565b6000602082019050610b6a6000830184610aa5565b92915050565b6000604082019050610b856000830185610aa5565b610b9260208301846109dd565b9392505050565b600060c082019050610bae6000830189610aa5565b8181036020830152610bc081886109ec565b90508181036040830152610bd481876109ec565b9050610be36060830186610aa5565b610bf06080830185610aa5565b610bfd60a0830184610aa5565b979650505050505050565b6000604082019050610c1d6000830185610aa5565b610c2a6020830184610aa5565b9392505050565b6000604051905081810181811067ffffffffffffffff82111715610c5857610c57610ddf565b5b8060405250919050565b600067ffffffffffffffff821115610c7d57610c7c610ddf565b5b601f19601f8301169050602081019050919050565b600081519050919050565b600082825260208201905092915050565b60008115159050919050565b6000819050919050565b82818337600083830152505050565b60005b83811015610cf1578082015181840152602081019050610cd6565b83811115610d00576000848401525b50505050565b60006002820490506001821680610d1e57607f821691505b60208210811415610d3257610d31610db0565b5b50919050565b6000610d4382610cba565b91507fffffffffffffffffffffffffffffffffffffffffffffffffffffffffffffffff821415610d7657610d75610d81565b5b600182019050919050565b7f4e487b7100000000000000000000000000000000000000000000000000000000600052601160045260246000fd5b7f4e487b7100000000000000000000000000000000000000000000000000000000600052602260045260246000fd5b7f4e487b7100000000000000000000000000000000000000000000000000000000600052604160045260246000fd5b6000601f19601f8301169050919050565b610e2881610cba565b8114610e3357600080fd5b5056fea26469706673582212201fdb798e50a15d916539518865bdf01597f835a0d665f41d48da4f1fd63dcd6764736f6c63430008000033",
  "immutableReferences": {},
  "source": "// SPDX-License-Identifier: MIT\r\npragma solidity ^0.8.0;\r\n\r\ncontract Rankify {\r\n    struct Review {\r\n        uint256 id;\r\n        string title;\r\n        string description;\r\n        uint256 rating;\r\n        uint256 timestamp;\r\n        uint256 qrCodeId;\r\n    }\r\n\r\n    struct QRCode {\r\n        uint256 transactionId;\r\n        bool used;\r\n    }\r\n\r\n    mapping(uint256 => Review) public reviews;\r\n    mapping(uint256 => QRCode) public qrCodes;\r\n\r\n    uint256 public reviewCounter;\r\n    uint256 public qrCodeCounter;\r\n\r\n    event ReviewSubmitted(uint256 id, string title, string description, uint256 rating, uint256 timestamp, uint256 qrCodeId);\r\n    event QRCodeGenerated(uint256 qrCode, uint256 transactionId);\r\n\r\n    function generateQRCode(uint256 _transactionId) public returns (uint256) {\r\n        uint256 newQRCode = qrCodeCounter;\r\n        qrCodes[newQRCode] = QRCode(_transactionId, false);\r\n        qrCodeCounter++;\r\n        emit QRCodeGenerated(newQRCode, _transactionId);\r\n        return newQRCode;\r\n    }\r\n\r\n    function submitReview(string memory _title, string memory _description, uint256 _rating, uint256 _qrCodeId) public {\r\n        require(!qrCodes[_qrCodeId].used, \"QR code has already been used\");\r\n        require(_qrCodeId < qrCodeCounter, \"Invalid QR code\");\r\n\r\n        reviews[reviewCounter] = Review(reviewCounter, _title, _description, _rating, block.timestamp, _qrCodeId);\r\n        qrCodes[_qrCodeId].used = true;\r\n\r\n        emit ReviewSubmitted(reviewCounter, _title, _description, _rating, block.timestamp, _qrCodeId);\r\n\r\n        reviewCounter++;\r\n    }\r\n\r\n    function getReviews(uint256 _id) public view returns (string memory, string memory, uint256, uint256, uint256) {\r\n        Review memory review = reviews[_id];\r\n        return (review.title, review.description, review.rating, review.timestamp, review.qrCodeId);\r\n    }\r\n\r\n    function getQRCodeDetails(uint256 _id) public view returns (uint256, bool) {\r\n        QRCode memory qrCode = qrCodes[_id];\r\n        return (qrCode.transactionId, qrCode.used);\r\n    }\r\n}\r\n\r\n\r\n",
  "sourcePath": "C:\\Users\\i\\Documents\\GitHub\\Rankify\\smartcontract\\contracts\\rankify_smartcontract.sol",
  "compiler": {
    "name": "solc",
    "version": "0.8.0+commit.c7dfd78e.Emscripten.clang"
  },
  "schemaVersion": "3.4.16",
  "updatedAt": "2024-01-02T12:10:04.373Z",
  "networkType": "ethereum",
  "devdoc": {
    "kind": "dev",
    "methods": {},
    "version": 1
  },
  "userdoc": {
    "kind": "user",
    "methods": {},
    "version": 1
  }
}